:020000040800F2
:10000000A817002029020008071F0008BF1B0008CE
:10001000051F000865070008B9230008000000005C
:100020000000000000000000000000009101000836
:100030006707000800000000D5010008C11F000884
:10004000430200084302000843020008430200087C
:10005000430200084302000843020008430200086C
:10006000430200084302000843020008430200085C
:10007000430200084302000843020008430200084C
:10008000430200084302000843020008430200083C
:10009000430200084302000843020008430200082C
:1000A00043020008692000084302000843020008D8
:1000B000430200084302000843020008430200080C
:1000C00043020008430200084302000843020008FC
:1000D00043020008430200084302000843020008EC
:1000E00043020008430200084302000800F002F83F
:1000F00000F03FF80AA090E8000C82448344AAF183
:100100000107DA4501D100F034F8AFF2090EBAE880
:100110000F0013F0010F18BFFB1A43F0010318473B
:10012000FC3700001C380000103A24BF78C878C1A2
:10013000FAD8520724BF30C830C144BF04680C60ED
:10014000704700000023002400250026103A28BF35
:1001500078C1FBD8520728BF30C148BF0B60704739
:10016000642900F0D580002070471FB51FBD10B571
:1001700010BD00F053FA1146FFF7F7FF02F010FA36
:1001800000F071FA03B4FFF7F2FF03BC00F078FA55
:10019000224B19680868B0E8F00F80F30988BFF3B4
:1001A0006F8F4FF0000080F311884EF00D0E7047F6
:1001B0000000000006480068006880F3088862B606
:1001C00061B6BFF34F8FBFF36F8F00DF00BF00BF7B
:1001D00008ED00E0EFF30980BFF36F8F0F4B1A6853
:1001E00020E9F00F106008B54FF0500080F311883F
:1001F000BFF34F8FBFF36F8F02F0F8FE4FF0000098
:1002000080F31188BDE8084019680868B0E8F00F6D
:1002100080F30988BFF36F8F704700BF3C00002058
:10022000EFF3058070470000094880470948004700
:10023000FEE7FEE7FEE7FEE7FEE7FEE7FEE7FEE796
:10024000FEE7FEE704480549054A064B70470000F3
:1002500065200008ED000008A8110020A817002064
:10026000A8130020A81300200FB4044910B503AA56
:10027000029800F08FF910BC5DF814FB28000020F4
:100280000FB41CB5074B06AA7B446946009005983D
:1002900000F067F90020694600F076F91CBC5DF8B3
:1002A00014FB0000FD0200002DE9F0410E4604465B
:1002B000002020622046E168884730B3252805D019
:1002C000D4E901219047206A401CF2E7E16820460A
:1002D00000278847050018D0A5F14100192802D849
:1002E00020354FF400673246294620462760FFF745
:1002F00037FF40B1012804D0F61D26F00706083666
:10030000D8E7361DD6E72846DAE7206ABDE8F0814F
:100310002DE9F0410646002410687529314616A5DE
:1003200010D0AFF30080002802DA404213A507E0A6
:1003300031688A0701D512A502E0490704D511A545
:10034000012401E0AFF3008000210A2206F1240716
:1003500009E0B0FBF2FCB0FBF2F302FB1C00303012
:1003600078541846491C0028F3D123462A463046C3
:10037000BDE8F04100F096B8000000002D0000003C
:100380002B0000002000000010B5431C02E010F814
:10039000011B71B18107FAD14FF0013202C88C1AEA
:1003A0008C4314EAC211F9D0C01A0A0603D0C01E49
:1003B00010BDC01A10BD0A0401D0801E10BD090274
:1003C000FCD0401E10BD032A40F2308010F0030C18
:1003D00000F0158011F8013BBCF1020F624498BF98
:1003E00011F801CB00F8013B38BF11F8013BA2F135
:1003F000040298BF00F801CB38BF00F8013B11F0B0
:10040000030300F0D980083AC0F0088051F8043B9B
:10041000083A51F804CBA0E80810F5E7121D5CBFBC
:1004200051F8043B40F8043BAFF30080D20724BFEF
:1004300011F8013B11F801CB48BF11F8012B24BF83
:1004400000F8013B00F801CB48BF00F8012B7047D2
:100450004FF0000200B5134694469646203922BF5D
:10046000A0E80C50A0E80C50B1F12001BFF4F7AFA8
:10047000090728BFA0E80C5048BF0CC05DF804EB8A
:10048000890028BF40F8042B08BF704748BF20F8F8
:10049000022B11F0804F18BF00F8012B70477047F6
:1004A000704770472DE9F0470D469946924604463D
:1004B00000F124080168880604D5E06921F01001E4
:1004C000216000E00120A84201DD471B00E0002779
:1004D000A1697A1902EB0900081AA0612078C00608
:1004E00002D42046AFF30080002608E0D4E90121C1
:1004F0001AF806009047206A401C761C20624E4580
:10050000F4DB2078C0060AD52046AFF3008006E071
:10051000D4E9012130209047206A401C2062381E17
:10052000A7F10107F4DC07E0D4E9012118F8050080
:100530009047206A401C2062281EA5F10105F3DCCB
:100540002046AFF300802078000602D50220BDE8E7
:10055000F0870120FBE7000001694A1C026108786E
:10056000704700B58FB0CDE90131002105910549F3
:100570007944CDE9031011466846FFF795FE0FB0A8
:1005800000BD0000E5FFFFFF0A6802F8010B0A60EA
:1005900070470000074B70B50D467B44FFF7E1FF45
:1005A0000446284601F050FF10B14FF0FF3070BDF7
:1005B000204670BDAF1E000010B5203AC0F00B8081
:1005C000B1E81850203AA0E81850B1E81850A0E857
:1005D0001850BFF4F5AF5FEA027C24BFB1E81850B1
:1005E000A0E8185044BF18C918C0BDE810405FEA21
:1005F000827C24BF51F8043B40F8043B08BF70479D
:10060000D20728BF31F8023B48BF11F8012B28BFA1
:1006100020F8023B48BF00F8012B7047754600F0F8
:100620002BF8AE4605006946534620F00700854684
:1006300018B020B5FFF706FEBDE820404FF00006D9
:100640004FF000074FF000084FF0000B21F00701BA
:10065000AC46ACE8C009ACE8C009ACE8C009ACE8FD
:10066000C0098D46704710B50446AFF300802046A0
:10067000BDE81040FFF786BD0048704748110020D4
:1006800001491820ABBEFEE72600020070470000BB
:1006900070B5044600688168C943C90717D18168ED
:1006A00021F00101816000F029FB05460AE000BF4E
:1006B00000F024FB401B022804D920688068C04356
:1006C000C00706D020688068C043C007F0D0002073
:1006D00070BDA06A40F01000A062E06A40F0010026
:1006E000E062012070BD0000F8B5002604460096C7
:1006F00000688168C943C9072DD0816841F00101B4
:100700008160164816490068B0FBF1F000E0401E19
:1007100000900028FBD100F0F1FA054616E000BF7A
:1007200000F0ECFA401B022810D920688068C04312
:10073000C0070BD0A06A40F01000A062E06A40F051
:100740000100E06284F824600120F8BD2068806820
:10075000C043C007E4D10020F8BD000038000020ED
:1007600040420F00FEE77047F8B50024009490F86F
:1007700024202546012A12D0012280F824204A682C
:100780001F23072A0DD20668776B521E02EB8202E6
:1007900093409F430B6893401F43776319E0022007
:1007A000F8BD06680D2A0AD2376BD21F02EB82020F
:1007B00093409F430B6893401F43376309E0F76AF8
:1007C0000D3A02EB820293409F430B6893401F4314
:1007D000F7620A68072306680A2A0AD3F7680A3A02
:1007E00002EB420293409F438B6893401F43F760A4
:1007F00008E0376902EB420293409F438B689340C5
:100800001F4337610A68102A01D0112A20D1124BE8
:1008100002689A4217D193681B0219D4936843F473
:10082000000393600968102912D10C490C4A096829
:10083000B1FBF2F101EB8101490000E0491E00919A
:100840000029FBD104E0816A41F02001816201248A
:1008500080F824502046F8BD0024014038000020D4
:1008600040420F000068C06C704700002DE9F04165
:100870004FF0000704003D467ED0A06A002628B94C
:10088000E66284F82460204600F07EF82046FFF7F8
:10089000FFFEA16AC90600D420B1A06A40F0100092
:1008A000A06269E0A16A21F4885141F00201A162CD
:1008B0006268E169237B0A4347EA43010A43A1686E
:1008C0004FF48077B94209D0012907D05FF00001C9
:1008D00094F814C0BCF1010F02D00AE03946F7E7E2
:1008E000F3B1A36A43F02003A362E36A43F0010378
:1008F000E3622368D3F804C02CF4694C4CEA010C81
:10090000C3F804C021688B68DFF870C003EA0C03E9
:1009100013438B60A168B9420BD0012909D00CE0C8
:10092000DFF85CC0A3690CEB43330B4343F4006175
:10093000DFE7218A0D05A5F580152168CB6A23F430
:1009400070032B43CB62216889680E4B194091429A
:1009500008D1E662A16A21F0020141F00101A16221
:10096000BDE8F081A06A20F0020040F01000A06213
:10097000E06A40F00100E0620120F1E7FDF7E1FFED
:1009800000E0FFFFFE0E1FFF00B585B000210091C3
:1009900001910291039100680E49884218D10E48D6
:1009A000816941F400718161816901F400710491F0
:1009B000816941F0040181618069694600F00400A9
:1009C00004902020009003200190044800F094F847
:1009D00005B000BD002401400010024000080140A5
:1009E00070B5044690F8240001280DD0012084F849
:1009F00024002046FFF778FE02004FF0000005D0EB
:100A000084F82400104670BD022070BDA16A40F237
:100A10000123994341F48071A1621F4D23681F494E
:100A2000AB4218D10E6816F4702F14D0A66A46F4A3
:100A30008016A6620E68760505D5A66A26F40056CD
:100A400046F48056A662A66AF6040AD5E66A26F03F
:100A50000606E66206E0A66A26F48016A6625E68CE
:100A6000E9E7E06284F824006FF002001860206873
:100A70008368C3F34243072B05D1A84208D1096814
:100A800011F4702F04D0816841F480118160B9E7BE
:100A9000816841F4A001F9E70028014004240140E5
:100AA00010B5044690F82400012807D0012084F8EE
:100AB00024002046FFF7ECFD10B107E0022010BD36
:100AC000A16A21F4885141F00101A162002184F85A
:100AD000241010BD70B5044600F010F90546601CE6
:100AE00002D004480078044400F008F9401BA042FA
:100AF000FAD370BD2C0000202DE9F84FDFF8B89133
:100B0000002409F1040A0AF1040B23460F270BF114
:100B1000040EC9E00125A5402A40AA427DD1674EB6
:100B2000D1F804C0ACEB0608B44532D014DCBCF1FB
:100B3000030F3AD009DCBCF1000F2AD0BCF1010F41
:100B40001CD0BCF1020F31D11DE0BCF1110F17D048
:100B5000BCF1120F2AD119E0B8F5881F19D006DCB4
:100B6000B8F5803F15D0B8F5801F1FD111E0B8F55A
:100B7000001F0ED0B8F5041F18D10AE0CB6815E0AD
:100B8000CB681B1D12E0CB6808330FE0CB680C3339
:100B90000CE08B682BB1012B4FF0080303D04561AB
:100BA00004E0042302E0056100E00023FF2A01D8ED
:100BB000064601E000F104064FEA840501D9A5F1DB
:100BC0002005D6F8008007FA05FC28EA0C0803FA8D
:100BD00005F548EA0508C6F800804D68ED0062D5C5
:100BE000374DAE6946F00106AE61AD6924F00306EB
:100BF00005F001050095334D06EB050CDCF80850B7
:100C0000A607360F07FA06F825EA0805DFF8B880C8
:100C1000404503D14FF0000817E044E0DFF8AC8016
:100C2000404502D14FF001080FE0DFF8A4804045B5
:100C300002D14FF0020808E0DFF89880404502D169
:100C40004FF0030801E04FF0040808FA06F848EAFC
:100C50000508CCF808804D68D9F80060ED034D46D2
:100C600001D5164300E096432E604D68DAF8006027
:100C7000AD03554601D5164300E096432E604D68FE
:100C8000DBF80060ED025D4601D5164300E09643B7
:100C90002E604D68DEF80060AD02754601D5164342
:100CA00000E096432E60641C0D682A46E5407FF400
:100CB00031AFBDE8F88F00000004014000001110C2
:100CC000001002400000014000080140000C0140FB
:100CD00000100140001401408068084000D001204D
:100CE0007047C26821EA02030A4043EA02410161F7
:100CF00070470AB1016170470904FBE70148806849
:100D0000704700002C00002070B5040025D094F836
:100D10003D00002520B984F83C50204600F04EF9F3
:100D2000242084F83D002068016821F00101016061
:100D30002068016841F4004101602068016821F4E5
:100D40000041016000F058FB4D4A6168914201D8B2
:100D50004C4900E04C49884201D2012070BD4B490A
:100D60002368B0FBF1F15E6826F03F060E435E603B
:100D70006368934206D94FF4967359434FF47A73DC
:100D8000B1FBF3F12368491C1E6A26F03F0631438C
:100D900019626168914210D84900401EB0FBF1F21F
:100DA000521CC2F30B02042A01D2042022E0B0FB41
:100DB000F1F0401CC0F30B001CE0A268F2B301EBA1
:100DC000C10303EB0116431EB3FBF6F35B1C43F4B4
:100DD00080431B0549D092B301EBC10202EB011124
:100DE000401EB0FBF1F0401CC0F30B0040F480400B
:100DF00040F400402168CA694CF6FF739A431043DF
:100E0000C861D4E9071001432068026822F0C002DB
:100E100011430160D4E9030101432068826848F26C
:100E2000FF339A4311438160D4E9050108432168E7
:100E3000CA6822F0FF021043C86001E00EE016E02D
:100E40002068016841F0010101602564202084F8D8
:100E50003D00256384F83E50002070BD01EB410643
:100E6000431EB3FBF6F35B1CB3E70120C2E701EBC3
:100E70004101401EB0FBF1F0401CC0F30B00B7E78E
:100E8000A086010080841E0000093D0040420F0042
:100E90002DE9F84F1F4690468A460446DDF8289013
:100EA000FFF72CFF054694F83D0020287FD1192339
:100EB000012240492046009500F00EFF002876D11F
:100EC00094F83C00012872D0012084F83C0020688E
:100ED0000168C90703D1016841F001010160206880
:100EE000016821F400610160212084F83D00102098
:100EF00084F83E0000262664C4F824806785608D4F
:100F000020852D48E0622B464A465146204600F097
:100F10006FFE90B9206841698069009036E02A46EA
:100F20004946204600F057FF50B1206C042804D1F8
:100F30002068016841F4007101600120BDE8F88F6C
:100F4000606A216800780861606A401C6062618D97
:100F5000491E6185218D491E89B221852268536908
:100F6000DB435B070BD451B100781061606A401C11
:100F70006062608D401E6085208D401E20852A465F
:100F80004946204600F082FE0028CED1208D002860
:100F9000C5D154F83D0B016841F400710160202077
:100FA00004F81E09E67766770020C7E7FFE702200E
:100FB000C4E70000020010000000FFFF10B586B07B
:100FC0000021009101910291039100680F4988422C
:100FD0001AD10F4CA06940F00800A061A0696946D1
:100FE00000F008000490C02000901220019003201F
:100FF00003900848FFF780FDE06940F40010E061CD
:10100000E06900F40010049006B010BD00540040E8
:1010100000100240000C014002488168027811442F
:10102000816070472C000020074810B5016841F02E
:1010300010010160032000F0A1F80F2000F006F875
:1010400000F04AF8002010BD0020024030B50546EF
:101050001C4887B0816941F400618161806906A9FB
:1010600000F40060009001A800F0A6F900F0D4F9A7
:101070001549164AB0FBF1F11548491E026041605E
:1010800040F2E7320021C0E903218160816100F074
:101090009BFB040012D10E4800F0C4FB04000DD1EC
:1010A000192000F03DF8102D07D200222946192002
:1010B00000F044F80748056000E0012407B020462E
:1010C00030BD00000010024040420F00002C0140E3
:1010D00010040020300000200F4808B5816941F05D
:1010E00001018161816901F001010091C16941F053
:1010F0008051C161C069002200F0805000900F2132
:10110000901E00F01BF80548416821F0E06141F0B5
:101110000071416008BD0000001002400000014065
:10112000002809DB00F01F020121914040098000E6
:1011300000F1E020C0F8001170470000F0B40E4B41
:101140001B680C46C3F30223C3F10705042D00D925
:101150000425191D072901D2002300E0DB1E01260A
:1011600006FA05F1491E214099409E40761E164020
:101170003143F0BC01F058B90CED00E0064900F035
:10118000070208684FF6FF03184040EA0220034AAE
:1011900010430860704700000CED00E00000FA0505
:1011A0002DE9F84305460078354CC00754D0E06976
:1011B0000026C00008D4E06940F08050E061E0699A
:1011C000012600F0805000902E480168C90512D415
:1011D0000168804641F480710160FFF78FFD07468A
:1011E00005E000BFFFF78AFDC01B642823D8D8F8AC
:1011F0000000C005F6D5206A10F4407021D0A988FF
:1012000001F4407181421CD0206A1F49012220F460
:1012100040700A6000220A602062C00711D0FFF708
:101220006DFD074641F2883808E000BFFFF766FD14
:10123000C11B414502D90320BDE8F883206A80071D
:10124000F4D5206A696820F44070084320621EB11A
:10125000E06920F08050E0612878800705D560685B
:10126000A96820F44040084360602878C00605D58E
:101270006068E96820F48000084360600020DBE7D4
:101280000010024000700040400442422DE9F04747
:101290000F46050061D0434E306800F00700B842A9
:1012A00009D2306820F0070038433060306800F021
:1012B0000700B84251D128683B4C810712D540073E
:1012C00003D5606840F4E06060602878000703D5CB
:1012D000606840F4605060606068A96820F0F000C9
:1012E000084360602878C00728D06868012810D0BB
:1012F0002168022810D0890700292EDA616821F0C0
:10130000030101436160FFF7F9FC804641F288392F
:101310000DE021688903EFE78901EDE7FFF7EEFCB7
:10132000A0EB0801494502D90320BDE8F0876068B9
:10133000696800F00C00B0EB810FEFD1306800F06D
:101340000700B8420BD9306820F0070038433060FE
:10135000306800F00700B84201D00120E5E72878A6
:10136000400705D56068E96820F4E06008436060E4
:101370002878000706D56068296920F4605040EAA3
:10138000C100606000F058F86168084AC1F30311B9
:10139000515CC8400649086006480068FFF756FEE1
:1013A0000020C2E70020024000100240043900087B
:1013B00038000020300000200F2202600C4A5368E1
:1013C00003F003034360536803F0F0038360536842
:1013D00003F4E063C36052684FF4E06303EAD202AF
:1013E00002610448006800F00700086070470000D0
:1013F0000010024000200240044805490068496886
:10140000044AC1F30221515CC840704738000020F3
:101410000010024014390008044805490068496872
:10142000044AC1F3C221515CC84070473800002013
:10143000001002401439000812A185B00FC98DE8D0
:101440000F0014A0144A006804905168134801F07A
:101450000C03042B10D0082B0ED1C1F38343C90316
:101460001DF803000AD5516804AAC1F34041515C3C
:101470000A4A5043B0FBF1F005B0704708494843B1
:10148000FAE7000002030405060708090A0B0C0D21
:101490000E0F1010010200000010024000127A002E
:1014A00000093D002DE9F84F040070D02078C04DB0
:1014B000C00749D06868C0F38100012807D0686878
:1014C000C0F38100022809D16868C00306D52868E6
:1014D000800339D560680028E7D035E06068B0F552
:1014E000803F0BD010B1B0F5A02F11D0286820F4A8
:1014F00080302860286820F4802002E0286840F4CA
:1015000080302860606890B1FFF7F8FB06460AE07B
:10151000286840F480202860F0E700BFFFF7EEFB6A
:10152000801B642873D828688003F7D50CE0FFF788
:10153000E5FB064605E000BFFFF7E0FB801B6428E3
:10154000F0D828688003F7D420789A4E80074FF0AF
:1015500001094FF0000839D5686810F00C0F07D06A
:101560006868C0F38100022809D16868C00306D406
:101570002868800714D52069012808D110E0206967
:10158000B0B1C6F80090FFF7B9FB074605E00AE1E5
:10159000FFF7B4FBC01B0228C4D828688007F7D522
:1015A0002868616920F0F80040EAC10028600DE079
:1015B000C6F80080FFF7A2FB074604E0FFF79EFB9A
:1015C000C01B022823D828688007F7D4207800079A
:1015D0002CD57948A169D9B1C0F80090FFF78EFBEE
:1015E000074604E0FFF78AFBC01B02280FD8686A91
:1015F0008007F7D571484FF4FA510068B0FBF1F05D
:10160000009000BF0098411E0091FAD20EE080E0E9
:10161000C0F80080FFF772FB074604E0FFF76EFB9F
:10162000C01B022875D8686A8007F7D42078400765
:1016300060D5E8690027C00008D4E86940F0805010
:10164000E861E869012700F0805000905C4801687B
:10165000C90513D40168834641F480710160FFF726
:101660004DFB824606E000BFFFF748FBA0EB0A00F7
:1016700064284ED8DBF80000C005F5D5E0680128E5
:101680000AD008B1052813D0286A20F0010028628A
:10169000286A20F0040002E0286A40F00100286275
:1016A000E06841F2883B98B1FFF728FB82460BE0E7
:1016B000286A40F004002862EEE700BFFFF71EFB37
:1016C000A0EB0A0159455AD8286A8007F6D50CE0E4
:1016D000FFF714FB824605E0FFF710FBA0EB0A01C1
:1016E00059454CD8286A8007F6D41FB1E86920F024
:1016F0008050E861E06988B36968C1F3810102291B
:1017000044D00228C6F8608004D0FFF7F7FA0446F8
:1017100038E034E0FFF7F2FA074604E0FFF7EEFAAC
:10172000C01B02282BD828688001F7D4206AB0F5A6
:10173000803F05D16868A16820F4003008436860E4
:10174000D4E908010843696821F47411084368600A
:10175000C6F86090FFF7D2FA044606E025E000BF25
:10176000FFF7CCFA001B022809D828688001F7D5BA
:101770001BE000BFFFF7C2FA001B022802D90320BA
:10178000BDE8F88F28688001F4D40EE00128F7D076
:101790006868226A00F48031914204D1616A00F4E1
:1017A0007010884201D00120EAE70020E8E700003D
:1017B00000100240000042428004424238000020F3
:1017C000007000407047704710B5040003D094F8D3
:1017D0003D0010B107E0012010BD002084F83C005E
:1017E000204600F01EF8022084F83D00211D2068EC
:1017F00000F040FC012084F8460084F83E0084F8A4
:101800003F0084F8400084F8410084F8420084F8E6
:10181000430084F8440084F8450084F83D0000202B
:1018200010BD704790F83D10012901D0012070478C
:10183000022180F83D100168CA6842F00102CA60C6
:1018400000680B49884208D0B0F1804F05D00949A3
:10185000884202D00849884204D1816801F007011A
:10186000062903D0016841F00101016000207047A2
:10187000002C01400004004000080040704770B593
:101880000446006801694FF00005C943890715D473
:10189000C168C943890711D4E91E0161012020777D
:1018A000206880698007204602D0FFF7E7FF04E048
:1018B00000F098F8204600F096F825772068016936
:1018C000C943490717D4C168C943490713D46FF006
:1018D00004010161022020772068806910F4407FB4
:1018E000204602D0FFF7CAFF04E000F07BF8204654
:1018F00000F079F8257720680169C943090716D4F3
:10190000C168C943090712D46FF0080101610420BE
:1019100020772068C0698007204602D0FFF7AEFF1D
:1019200004E000F05FF8204600F05DF825772068BD
:101930000169C943C90617D4C168C943C90613D48C
:101940006FF010010161082020772068C06910F451
:10195000407F204602D0FFF791FF04E000F042F8FC
:10196000204600F040F8257720680169C943C9077F
:1019700008D1C168C943C90704D1891E0161204645
:1019800000F032F820680169C943090609D4C1682A
:10199000C943090605D46FF0800101612046FFF7B5
:1019A00011FF20680169C943490609D4C168C943C8
:1019B000490605D46FF040010161204600F01EF891
:1019C00020680169C94389060BD4C168C9438906E7
:1019D00007D46FF0200101612046BDE87040FFF799
:1019E000F2BE70BD7047704700680349884201D15C
:1019F000FFF712BB70470000002C0140704770B524
:101A0000040004D094F83D00002510B106E0012048
:101A100070BD84F83C50204600F022F8242084F861
:101A20003D002068C16821F40051C160204600F0EB
:101A300035FC2068016921F4904101612068416909
:101A400021F02A0141612068C16841F40051C16060
:101A50002564202084F83D0084F83E00002070BDFD
:101A600070B586B000240094019402940394234E30
:101A70000368234902200322224DB34219D18B6906
:101A800043F480438B618B6903F4804304938B6937
:101A900043F004038B618969039201F0040104910E
:101AA0000102CDE9001069462846FFF725F8281500
:101AB0001BE0154EB3421FD1CB6943F40033CB6119
:101AC000CB6903F4003304938B6943F004038B6107
:101AD0008969039201F0040104910421CDE9001009
:101AE00069462846FFF708F80820CDE90004694652
:101AF00028460294FFF700F806B070BD0038014098
:101B00000010024000080140004400402DE9F84365
:101B1000044690F83D001F4616460D4620284CD13D
:101B2000C5B1BEB194F83C00012846D0012084F82C
:101B30003C004FF00008C4F84080212084F83D00AC
:101B4000FFF7DCF8A6848146E684A068B0F5805FE4
:101B500003D004E00120BDE8F883206928B12E46B7
:101B60005FF0000584F83C800EE00026FAE7802153
:101B7000204600F0EFFBA0B9AEB116F8010B2168CA
:101B80004860E08C401EE084E08C4B464FF0000241
:101B900000970028EBD14FF04001204600F0DAFB1F
:101BA00030B10320D7E735F8020BC0F30800E6E7B1
:101BB000202084F83D000020CDE70220CBE7FEE79F
:101BC00001684A69D24352050FD46FF480624A61BA
:101BD000002140F8301F202242738173026942F0D5
:101BE0000402026101730120704700207047000069
:101BF000F8B50446C06A1E460D461746082807D0A9
:101C0000012805D010F5803F02D0206B122804D1A6
:101C10002068016841F480710160134600224FF092
:101C200001112046009600F057F840B12068006886
:101C3000C00502D54FF4007020640320F8BD206970
:101C4000B0F5804F0ED00620216800EAD51040F094
:101C5000F000086133463A460B49204600F070F820
:101C600078B902E005F0FE0000E0E8B22168086102
:101C7000054933463A46891F204600F061F800289E
:101C8000DCD00120F8BD00000800010070B5164648
:101C90000D4604460DE02046FFF792FF08B10120F3
:101CA00070BD681C05D0FFF729F8801BA84207D833
:101CB00035B120684069C0434007ECD4002070BDB6
:101CC000002044F8300F20216173A073216941F096
:101CD000200121612073E2E72DE9F0471E4690467E
:101CE0000D460446C1F30747DDF8209008E0701C5C
:101CF00006D0FFF703F8A0EB0900B0420FD876B189
:101D00002068012F18D0806925EA00000004000C2B
:101D100014D000214145EAD00020BDE8F087002022
:101D200044F8300F20216173A073216941F0200134
:101D3000216120730120F0E74069E5E70121E9E72F
:101D40002DE9F0479A4691460E46044600254FF08D
:101D50002008C1F3074725E020684069C0434005DB
:101D600014D42068016841F40071016021686FF4A7
:101D700080604861256384F83D8084F83E50206C83
:101D800040F00400206484F83C501FE0B9F1FF3FAC
:101D900008D0FEF7B3FFA0EB0A0149450CD8B9F112
:101DA000000F09D02068012F13D0806926EA0000B7
:101DB0000004000C0BD0CFE744F8305F84F80D80AE
:101DC000A573206940F02000206125730120BDE843
:101DD000F0874069EAE770B516460D4604460DE007
:101DE0002046FFF7EDFE08B1012070BD681C05D04C
:101DF000FEF784FF801BA84207D835B120684069F0
:101E0000C0430006ECD4002070BD002044F8300F21
:101E100020216173A073216941F0200121612073A9
:101E2000E2E700003EB500241148009401940294BA
:101E30000E498460016004730475012505614FF447
:101E400060214460C161FEF711FD08B172B6FEE782
:101E50000520CDE90005694602940548FEF784FC9B
:101E6000002801D072B6FEE73EBD0000002401400C
:101E70009C00002030B585B00024204800940194D7
:101E800002940394816941F020018161816901F02C
:101E900020010491816941F004018161816901F0AF
:101EA00004010491816941F0080181618069144D48
:101EB00000F008000122049091022846FEF719FF65
:101EC00000224FF4C0512846FEF713FF4FF4E050B4
:101ED00000900120CDE901040220039069462846C4
:101EE000FEF70AFE4FF48040CDE90004694628461B
:101EF0000294FEF701FE05B030BD00000010024064
:101F0000000C0140FEE7FEE710B51E481EA1026A64
:101F10001F48FEF7B5F90021084600F0EBFA1DA0B6
:101F200000F034FB0721002000F0E4FA184800F02C
:101F30002DFB0A21002000F0DDFA18A000F026FB9E
:101F40000B21002000F0D6FA15A000F01FFB0021A5
:101F5000012000F0CFFA14A000F018FB174C00226B
:101F60004FF480512046FEF7C4FE0122D1022046E4
:101F7000FEF7BFFE20460122BDE810409102FEF7A9
:101F8000B8BE0000000000202564200A0000000008
:101F9000A801002056616C75653D200020000000FE
:101FA00050504D202000000020202020204E4F5275
:101FB0004D414C202020202020000000000C01403A
:101FC00010B5502080F31188BFF34F8FBFF36F8F90
:101FD00001F002FB18B104494FF080500860002066
:101FE00080F3118810BD000004ED00E030B593B01F
:101FF00028216846FEF72CFA14210AA8FEF728FAD1
:10200000002501200F9510951195010412958DE87A
:10201000230004904FF4E010CDE908100224079447
:102020006846FFF73FFA08B172B6FEE70AA90F202B
:1020300081E831004FF48060CDE90D0502210AA846
:10204000FFF724F908B172B6FEE74FF40040119093
:102050000F940FA8FFF7A4F8002801D072B6FEE78E
:1020600013B030BD704700000148FFF708BC000006
:1020700010040020F0B50268164B174C174D4FF0B6
:102080008047984205D0B84203D0A04201D0A84270
:1020900003D122F070064A683243984205D0B84214
:1020A00003D0A04201D0A84203D122F44074CA68F0
:1020B00022434C6922F08002224302608A68C26295
:1020C0000A688262984201D1096901630121416174
:1020D000F0BD0000002C014000040040000800405A
:1020E00000F0CCF900F0BEF91E4C4FF41676012535
:1020F0004FF4C877211D1CA00EC9FEF7B5F800F0FB
:1021000089FD206AB04202DB616A012900D1A56025
:10211000B04201DC606A38B900231A461946E0690A
:1021200001F04EF80220A060E068022802D1A06809
:1021300001280FD00020606000F088FD211D14A050
:102140000EC9FEF791F83846FEF7C4FC642000F093
:102150006FFECFE7002365601A461946E06901F07B
:102160002FF8E9E7000000205461736B5F312052C3
:10217000554E207769746820613D256420623D25B5
:10218000642073746174653D2564200A00000000BA
:102190005461736B5F3120454E4420262053656E99
:1021A000642044415441207769746820613D25646E
:1021B00020623D25642073746174653D2564202090
:1021C0000A0000000C4C4FF416764FF0FF350BA0C0
:1021D000FEF74AF8206AB04201DC606A18B9294665
:1021E000E06901F09DF8FFF78FFE07A0FEF73CF8CD
:1021F000642000F01DFEEAE7000000205461736BCC
:102200005F322052554E0A005461736B5F32204595
:102210004E440A0A000000000F4C4FF0FF35211D0C
:102220000EA00EC9FEF720F86068012808D100232F
:102230001A461946E06900F0C3FF0A2000F0F8FDD5
:102240002946E06901F06CF800F0B8F8A1680CA02C
:10225000E160FEF709F8E2E7000000205461736BCB
:102260005F332052554E207769746820613D2564A4
:1022700020623D25642073746174653D25640A0005
:102280005461736B5F3320454E4420776974682036
:1022900073746174653D25640A0A000070B50446D4
:1022A00000680169E26821F440511143016121692C
:1022B000A0680843616908432168CA6841F20C6359
:1022C0009A430243CA6020684169A26921F44071BF
:1022D000114341611E492068884202D1FFF79CF8F2
:1022E00001E0FFF789F800EBC00101EB0012606824
:1022F00064218000B2FBF0F3B3FBF1F36FF018063A
:102300007343B2FBF0F5B2FBF0F605EB8305322325
:1023100003EB0515B5FBF1F5B6FBF1F605F0F0059D
:1023200005EB0615B2FBF0F6B2FBF0F0B0FBF1F0F6
:102330006FF01802504306EB800003EB0010B0FB77
:10234000F1F0216800F00F002844886070BD0000A3
:10235000003801402DE9F041984617460E460446E4
:10236000069D1DE0681C1BD02DB1FEF7C7FCA0EB3D
:102370000800A84214D92068C16821F4D071C16056
:102380002068416921F001014161202084F83D006D
:1023900084F83E00002084F83C000320BDE8F08172
:1023A0002068006836EA000004D00020B842D9D086
:1023B0000020F3E70120F9E7FEE7000010B5002157
:1023C000084600F097F80EA000F0E0F80021012088
:1023D00000F090F80FA000F0D9F8124C00224FF452
:1023E00000612046FEF785FCA1142046FEF779FC2B
:1023F000002221152046BDE81040FEF77ABC0000FF
:10240000585858205741524E494E47205858582046
:10241000000000002046495245204445544543549D
:1024200045442000000C01400907090E002804DB88
:1024300000F1E02080F80014704700F00F0000F178
:10244000E02080F8141D70470020704713B54FF648
:10245000FF73012269460248FFF758FB00981CBD34
:102460002001002010B5802000F050F8002420202A
:1024700000F06CF8641C462CF9DB10BD10B532205E
:10248000FEF728FB302000F041F80520FEF722FB84
:10249000302000F03BF80120FEF71CFB302000F05C
:1024A00035F80A20FEF716FB202000F02FF80A204E
:1024B000FEF710FB282000F029F80120FEF70AFBA8
:1024C000082000F023F80120FEF704FB012000F0B3
:1024D0001DF80120FEF7FEFA0120FEF7FBFA0620A8
:1024E00000F014F80120FEF7F5FABDE810400C20CA
:1024F00000F00CB810B1012805D102E041F08001D4
:1025000001E041F0C001C8B2AFF300801CB500F09B
:10251000F00141F00C028DF8042041F008010001A7
:102520008DF8051040F00C018DF8061040F0080001
:102530008DF8070064200090042301AA4E21024870
:10254000FEF7A6FC1CBD0000CC0000201CB500F06E
:10255000F00141F00D028DF8042041F00901000165
:102560008DF8051040F00D018DF8061040F00900BF
:102570008DF8070064200090042301AA4E21024830
:10258000FEF786FC1CBD0000CC00002010B5044600
:1025900002E0641CFFF7DAFF20780028F9D110BDB3
:1025A0001CB5FEF741FDFFF721FDFFF763FCFFF7C8
:1025B00039FC32483049002401603149C0E9011436
:1025C0004FF48041C0E9034144618461C461046205
:1025D000FEF79AFB08B172B6FEE728482949543045
:1025E0004FF4E1350160C0E901540C26C460C0E934
:1025F00004468461C461FFF702FA08B172B6FEE7CF
:102600001E48214998300160C0E90154C460C0E906
:1026100004468461C461FFF7F2F908B172B6FEE7BF
:102620001A490320CDE900010023802218A11A488D
:1026300000F06CFF15490120091DCDE900010023C0
:10264000802216A1174800F061FF104902200831CE
:10265000CDE900010023802213A1154800F056FFA8
:1026600003220021012000F043FD08491039C86110
:1026700000F07EFCFEE7000000540040CC0000208B
:10268000A0860100003801400044004010000020F6
:102690005461736B31000000E12000085461736BDA
:1026A00032000000C52100085461736B3300000044
:1026B000192200082DE9F041184C0F4605466669BD
:1026C0002068001D00F0F0FA38B9206890F82C104E
:1026D00001208840A1698143A161681C07D137B1FD
:1026E0002168BDE8F0410E48091D00F021BB2068BB
:1026F0003544B5424560216805D2A068BDE8F04187
:10270000091D00F0FDBA6068091D00F0F9FA206BA0
:10271000854200D22563BDE8F08100003C00002026
:10272000340500202DE9F041054600F00DFB2E4C4C
:102730002069401C206120682C4F10B1E06940B333
:102740002DE025602069012829D1002606EB8600AE
:1027500007EB800000F0C6FA761C072EF6D323485C
:102760008C3000F0BFFA2148A03000F0BBFA1F48BF
:10277000B43000F0B7FA1D48C83000F0B3FA1B4877
:10278000DC3000F0AFFA19488C3060601430A06083
:1027900005E02068E96AC06A884200D82560E06ADE
:1027A000401CE062E96A0120A26988401043A061F0
:1027B00001EB810007EB8000291D00F0B9FA00F061
:1027C000E3FAE06900280CD02068E96AC06A884210
:1027D00007D207494FF080500860BFF34F8FBFF317
:1027E0006F8FBDE8F08100003C00002058040020FD
:1027F00004ED00E02DE9F041856B17460446002604
:10280000026C82B1C7B1E068FDF7DDFDE168206CC4
:10281000091AE1602268914202D26168081AE060F8
:10282000022F16D017E02068A8B9606800F038FFC2
:102830000646002060600EE0A068FDF7C4FD216C34
:10284000A0680844A0606168884204D32068A06042
:1028500001E005B16D1E6D1CA5633046BDE8F08139
:1028600010B5044690F8510058B101280CD0022848
:102870000FD0502080F31188BFF34F8FBFF36F8FBD
:10288000FEE7206B00F094FA2046BDE8104000F00F
:102890008FBA10BD10484FF44061420706D0C01DEA
:1028A0000D4920F00700411AC1F540610B4A002391
:1028B0000144C2E900030839103A21F00701116010
:1028C0004B600B600B1AC0E9001393604FF000409F
:1028D0005360D06070470000480500208800002049
:1028E000144E154CA6F1C8074FF08058DFF84C90F5
:1028F00012E000BF00F028FAF068C568281D00F05B
:10290000D3F92069401E2061E068401EE06000F0BD
:102910003BFA2846FFF7A4FFE0680028EAD13868B0
:102920000128F9D9C9F80080BFF34F8FBFF36F8F2B
:10293000F2E70000200500203C00002004ED00E04C
:102940000346009829B10260C0E90F31012100F06F
:10295000F3BB0060F8E72DE9F0479A46DDE909840A
:1029600081466FF00303206B03EB82021044089D45
:1029700020F00706700707D0502080F31188BFF3BE
:102980004F8FBFF36F8FFEE723180A5C83F8342064
:102990000A5C12B1401C1028F6D3002784F843705B
:1029A000072D00D30625E562C4E91157201D00F06C
:1029B000A4F904F1180000F0A0F92461C5F10700A2
:1029C0006462A061E76484F850705246494630461C
:1029D00000F00EF92060B8F1000F01D0C8F80040F7
:1029E000BDE8F08730B5114900E011460A6882421F
:1029F000FBD34B685C18844203D14068184448609C
:102A0000084643681C18944209D1084C103C2468BD
:102A1000A24209D052681A4442600A6812680260F1
:102A2000814200D0086030BD0460F9E788000020D2
:102A300010B5044600F088F9A06B28B15FF00004DF
:102A400000F0A2F9204610BD0124F9E706484168CC
:102A5000096829B14168C968C96849680163704754
:102A60004FF0FF31FAE700003C00002008484068C2
:102A7000401C4FF0500080F3118804D0BFF34F8FFB
:102A8000BFF36F8FFEE7BFF34F8FBFF36F8FFEE78C
:102A9000900000202DE9F041044600F055F994F92A
:102AA000455004F1240609E0606A48B1304600F060
:102AB0008DFE08B100F0EAF96D1E6DB2002DF3DC59
:102AC0004FF0FF3684F8456000F05EF900F03CF905
:102AD00094F9445004F1100709E0206948B13846E0
:102AE00000F074FE08B100F0D1F96D1E6DB2002D3A
:102AF000F3DC84F84460BDE8F04100F045B9000023
:102B00002DE9F0410546002700F068FA314E3068A3
:102B100008B9FFF7BFFEF06805424BD1C5B30835D1
:102B200068070ED005F00700C0F1080005446807EB
:102B300007D0502080F31188BFF34F8FBFF36F8F02
:102B4000FEE72DB37068854234D822481030014624
:102B50000C6801E020460C466168A94202D2216857
:102B60000029F7D131688C4224D0076821680160C0
:102B700060680837411B10290FD96019420708D037
:102B8000502080F31188BFF34F8FBFF36F8FFEE7A4
:102B900010E041606560FFF725FF61687068401ACA
:102BA0007060B268904200D2B060F06801430020CB
:102BB000C4E9000100F044FE780707D0502080F3FC
:102BC0001188BFF34F8FBFF36F8FFEE73846BDE824
:102BD000F0810000780000200449086818B10868F6
:102BE000826C521C82640868704700003C00002020
:102BF00010B5031F4FF080741C601B1F21F00101F2
:102C00001960191F024B0B60143940380A6010BD5F
:102C10006D2A000810B50A48FDF7E2FE3220FDF7E4
:102C200059FF0748FDF71EFE064C20620448FDF7D9
:102C300037FF4FF480410448FEF74EF8606210BD44
:102C40009C00002000000020000C014010B50C4C3E
:102C50000CA12046626AFDF713FB0AA10A48226A0A
:102C6000FDF70EFB2178084800F010F80649BDE892
:102C700010404FF4FA730A22A1F14E00FEF746BF4E
:102C80000000002025640000B201002070B50D4650
:102C90000446FDF779FB2C21215420444421457042
:102CA00081700021C17070BDD0E9013201699A6064
:102CB000D0E901235A604A68824201D182684A60A1
:102CC000002202610868401E086008687047000022
:102CD000034B036003F154000860802010607047CC
:102CE000BC01002000F108014FF0FF32C0E90112E1
:102CF000C1600161002101607047002101617047DE
:102D000030B50B685A1C02D000F1080202E00269DB
:102D100004E02246546825689D42FAD953684B6006
:102D200099608A60516008610168491C016030BD8A
:102D300042684A6093688B6093685960916008614B
:102D40000168491C01607047502080F31188BFF36F
:102D50004F8FBFF36F8F0A494868401C48600128B5
:102D60000CD10848006810F0FF0F07D0502080F306
:102D70001188BFF34F8FBFF36F8FFEE770470000DE
:102D80009000002004ED00E00849486828B1401E8A
:102D9000486001D180F311887047502080F311887A
:102DA000BFF34F8FBFF36F8FFEE70000900000204E
:102DB00070B5002827D0144DA0F108046168E868B8
:102DC000014207D1502080F31188BFF34F8FBFF32A
:102DD0006F8FFEE722683AB1502080F31188BFF36D
:102DE0004F8FBFF36F8FFEE78143616000F0F6F80D
:102DF00060686968084468602046FFF7F3FDBDE835
:102E0000704000F01DBD70BD780000204FF0E02044
:102E100000210161816105494FF47A720968B1FBB3
:102E2000F2F1491E4161072101617047380000201D
:102E300010B5020014D00F48806B38B1502080F3D9
:102E40001188BFF34F8FBFF36F8FFEE700F0C6F816
:102E500000211046FFF72EFC00F0F2FC002807D1FD
:102E600005494FF080500860BFF34F8FBFF36F8F5D
:102E700010BD00003C00002004ED00E002498A6A19
:102E800002604969416070473C000020014901200F
:102E9000486270473C00002010B50C4650B109490B
:102EA00009681831FFF72CFF2046BDE810400121CA
:102EB000FFF700BC502080F31188BFF34F8FBFF3A2
:102EC0006F8FFEE73C00002070B504004BD0A26C71
:102ED000A2B1606C884200D30146E06A884242D0C9
:102EE000012A40D1204D2A6894420FD1502080F30E
:102EF0001188BFF34F8FBFF36F8FFEE7502080F331
:102F00001188BFF34F8FBFF36F8FFEE7E162A269B5
:102F1000002A02DBC1F10701A161144E00EB800021
:102F2000616906EB800081421DD1201DFFF7BCFEC8
:102F3000012150B9E06A00EB800256F8222022B944
:102F4000AA6901FA00F08243AA61E06AAA69814095
:102F50001143A96100EB800006EB8000211DBDE854
:102F60007040FFF7E5BE70BD3C0000205804002013
:102F700010B586B00024039405AA04A903A80494FC
:102F8000FFF7A6FEDDE903010094CDE9011000235F
:102F90000EA11048059A00F0E6FA0F490028486390
:102FA00011D0502080F31188BFF34F8FBFF36F8F84
:102FB0004FF0FF3008630120C8614C6106B0BDE8E6
:102FC000104000F041B806B010BD000049444C4527
:102FD00000000000E12800083C0000200248816B4E
:102FE000491C8163704700003C0000201448816B3D
:102FF00011B1012141627047002141628169B1FA3A
:1030000081F1C1F11F0101EB81020E4951F822301B
:103010006BB101EB820101F108034A6852684A6012
:103020009A4201D152684A60D168016070475020CD
:1030300080F31188BFF34F8FBFF36F8FFEE700005F
:103040003C000020580400201CB526490878019057
:10305000FF20087008788DF800009DF800009DF8AA
:10306000002000F0F000904207D0502080F311883B
:10307000BFF34F8FBFF36F8FFEE79DF800001A4B31
:1030800000F0500018700720986005E09DF80020BF
:1030900052008DF80020401E9DF800201206F5D445
:1030A0009860032807D0502080F31188BFF34F8F1A
:1030B000BFF36F8FFEE74FF440709860019808707F
:1030C0000A48016841F470010160016841F07041F3
:1030D0000160FFF79BFE00205860FDF76BF80020B1
:1030E0001CBD000000E400E09000002020ED00E0A6
:1030F000F8B517460E46050014D0DEB105FB06F004
:103100004830FFF7FDFC04000AD0002084F8460098
:1031100004F148023B46314628460094FFF710FC74
:103120002046F8BD502080F31188BFF34F8FBFF3C6
:103130006F8FFEE70020E3E770B50D46040025D051
:10314000FFF702FED4E90F20216802FB0011616045
:103150000021A1632168A1600A46D4E90F01401E45
:1031600000FB0121E16021464FF0FF3001F8440FE0
:10317000487004F110008DB1FFF7B4FD04F1240094
:10318000FFF7B0FDFFF700FE012070BD502080F377
:103190001188BFF34F8FBFF36F8FFEE721690029BE
:1031A000F0D000F013FB0028ECD004494FF0805021
:1031B0000860BFF34F8FBFF36F8FE3E704ED00E0CC
:1031C0002DE9FF4782B01D468A464FF000080400F3
:1031D00003D0BAF1000F08D011E0502080F311881D
:1031E000BFF34F8FBFF36F8FFEE7206C38B15020D5
:1031F00080F31188BFF34F8FBFF36F8FFEE7022D6F
:103200000AD1E06B012807D0502080F31188BFF36A
:103210004F8FBFF36F8FFEE700F0D0F93F4F4FF0B5
:1032200000094FF0805648B9049838B1502080F317
:103230001188BFF34F8FBFF36F8FFEE7FFF784FD59
:10324000A06BE16B884207D3022D05D00498D0B162
:10325000B8F1000F1AD01EE02A4651462046FFF76B
:10326000C9FA616A19B104F1240000F0AFFA20B183
:103270003E60BFF34F8FBFF36F8FFFF785FD0120D7
:1032800006B0BDE8F087FFF77FFD22E06846FFF754
:10329000F5FD4FF00108FFF777FDFFF79FFEFFF701
:1032A00053FD94F94400401C01D184F8449094F9F2
:1032B0004500401C01D184F84590FFF765FD04A945
:1032C000684600F0E9F830B12046FFF7E3FB00F074
:1032D000B7FA0020D4E7FFF737FDA06BE16B884217
:1032E00013D1FFF751FD04F110000499FFF7D4FD4D
:1032F0002046FFF7CFFB00F0A3FA00289ED13E60E6
:10330000BFF34F8FBFF36F8F98E7FFF73DFD204668
:10331000FFF7C0FB00F094FA90E7000004ED00E036
:103320002DE9F343002683B00400354609D0206C14
:1033300078B1502080F31188BFF34F8FBFF36F8FA8
:10334000FEE7502080F31188BFF34F8FBFF36F8FDC
:10335000FEE700F033F9DFF83C814FF000094FF051
:10336000805748B9049838B1502080F31188BFF3D2
:103370004F8FBFF36F8FFEE7FFF7E6FCA06BC8B17E
:10338000401EA063206810B9FFF726FC606020692A
:1033900050B104F1100000F019FA28B1C8F800701B
:1033A000BFF34F8FBFF36F8FFFF7EEFC012005B027
:1033B000BDE8F083049808B166B10FE03DB150203C
:1033C00080F31188BFF34F8FBFF36F8FFEE7FFF7D6
:1033D000DBFC5DE06846FFF751FD0126FFF7D4FCFA
:1033E000FFF7FCFDFFF7B0FC94F94400401C01D14D
:1033F00084F8449094F94500401C01D184F845902C
:10340000FFF7C2FC04A9684600F046F800282046F1
:1034100012D0FFF73FFB00F013FA2046FFF708FB3E
:103420000028A9D09DB3FFF78FFC606A50B3206BD2
:103430000068C0F1070126E0FFF7FAFAE0B1206862
:1034400038B9FFF781FC606800F076F90546FFF7B0
:103450009BFC04F124000499FFF71EFD2046FFF7B2
:1034600019FB00F0EDF9002886D1C8F80070BFF311
:103470004F8FBFF36F8F7FE72046FFF70BFB00F006
:10348000DFF979E700216068FFF71EFD9FE7FFE79E
:1034900000208CE704ED00E02DE9F0410C4605002A
:1034A00011D0C4B1FFF750FC174B5A696E68206801
:1034B000911B471C17D02F689B6A9F4219D09642D8
:1034C00017D8012410E0502080F31188BFF34F8FEC
:1034D000BFF36F8FFEE7502080F31188BFF34F8F4B
:1034E000BFF36F8FFEE70024FFF74EFC2046BDE8D8
:1034F000F081884205D9401A20602846FFF7BEFCBB
:10350000F1E700202060DCE73C0000202DE9FF5FB0
:103510008346DDE90E87994616468A469000FFF7F6
:10352000EFFA05001CD05420FFF7EAFA040014D08B
:103530000020256384F85100CDE90240CDE90087E1
:103540004B46324651465846FFF705FA2046FFF7EC
:10355000E9F8012004B0BDE8F09F2846FFF728FCF9
:103560004FF0FF30F6E7F0B585B0DDE90B640A9D5A
:10357000A6B1DCB1542700972663022684F8516077
:10358000002604AFCDE90246CDE90057FFF7E3F985
:103590002046FFF7C7F8049805B0F0BD502080F32F
:1035A0001188BFF34F8FBFF36F8FFEE7502080F37A
:1035B0001188BFF34F8FBFF36F8FFEE70548C169D6
:1035C00019B1806B18B100207047012070470220AC
:1035D000704700003C0000202DE9F0412E4C0027F0
:1035E000A06B40B1206A401C2062606A00B10127D4
:1035F0003846BDE8F0816669761C666113D1606863
:10360000006838B1502080F31188BFF34F8FBFF3AB
:103610006F8FFEE76068A1686160A060A06A401CCF
:10362000A062FFF713FA206BDFF87080864209D39F
:103630006068006880B16068C068C5686868864274
:103640000DD220632068C06A00EB800158F8210089
:103650000128CAD90127C8E74FF0FF30F1E7281D3C
:10366000FFF722FBA86A18B105F11800FFF71CFB51
:10367000E86A0121A26981401143A16100EB800148
:1036800008EB8100291DFFF753FBE86A2168C96A2E
:103690008842CDD30127CBE73C000020580400200E
:1036A00070B504004FF0000140D0214D28688442DD
:1036B00007D0502080F31188BFF34F8FBFF36F8F77
:1036C000FEE7A06C38B1401EA064636CE26A9A42C7
:1036D0002CD040B12AE0502080F31188BFF34F8FE7
:1036E000BFF36F8FFEE7201DFFF7DEFA114A0121BD
:1036F00050B9E06A00EB800352F8233023B9AB697C
:1037000001FA00F08343AB61606CE062C0F1070036
:10371000A061E06AAB6981401943A96100EB8000B8
:1037200002EB8000211DFFF703FB0121084670BD5D
:103730003C0000205804002070B504004FF0000049
:1037400038D0204DE16A2A68D26A914233D2A0690A
:10375000002804DB2868C06AC0F10700A0611A4E87
:1037600001EB8101606906EB810188421ED1201DB9
:10377000FFF79AFA012150B9E06A00EB800256F88F
:10378000222022B9AA6901FA00F08243AA612868BE
:10379000C06AE062AA6981401143A96100EB800020
:1037A00006EB8000211DFFF7C3FA02E02868C06A1B
:1037B000E062012070BD616C2A68D26A9142F8D340
:1037C00070BD00003C000020580400202DE9F041AD
:1037D000C068C468ACB104F118000746FFF764FA8A
:1037E000154DA86B0126A0B139461448FFF7A0FA81
:1037F000E06A2968C96A88421CD901206E62BDE866
:10380000F081502080F31188BFF34F8FBFF36F8F8B
:10381000FEE7201DFFF748FAE16AAA6906FA01F0FF
:103820001043A86101EB81000449B43901EB800029
:10383000211DDBE70020E2E73C0000200C05002012
:103840002DE9F0472C4D00242746A86B38B1FFF72F
:103850007BFAA86B401EA863A86B40B146E05020DD
:1038600080F31188BFF34F8FBFF36F8FFEE7296995
:10387000224E0120D1B3A6F1B40980463068E8B1E8
:10388000F068C46804F11800FFF70EFA201DFFF776
:103890000BFAE06AAA6908FA00F11143A96100EB8A
:1038A000800109EB8100211DFFF742FAE06A2968D7
:1038B000C96A8842E2D3C5F82480DFE70CB1FFF77C
:1038C000C5F82C6A44B14646FFF786FE00B16E6229
:1038D000641EF9D100202862686A38B108490127BE
:1038E00038070860BFF34F8FBFF36F8FFFF74CFAB5
:1038F0003846BDE8F08700003C0000200C050020A1
:1039000004ED00E0000000000000000001020304DC
:103910000607080900000000010203043C39000802
:10392000000000209C00000028010008D839000891
:103930009C0000200C17000044010008000000005B
:103940000000000000000000000000000000000077
:103950000000000000000000000000000000000067
:103960000000000000000000010000001000000046
:10397000000000000024F40000000000000000002F
:103980000000000000000000000000000000000037
:103990000000000000000000000000000000000027
:1039A0000000000000000000000000000000000017
:1039B0000000000000000000000000000000000007
:1039C00000000000000000000000000000000000F7
:0839D000AAAAAAAA0000000047
:04000005080000ED02
:00000001FF
